:0A09F800020E000002100000C10012
:0A0A03008F90C2A01209A3C2A22224
:0B09CF007C007D0A12094EEF2430FF6F
:0A09DA008F90D2A01209A3C2A2223E
:1009E4007F38120A037F0C120A037F01120A037F65
:0409F40080020A0370
:1008F700E4F510F511F50EF50FC200AD0FAC0EAF14
:0309070011AE101E
:10090A008E0A8F0B8C0C8D0D7F80120A03AE0AAFF4
:10091A000B1209CFAE0AAF0B7C007D0A12094EED0D
:10092A002430FF1209DA7F3A1209DAAE0CAF0D123F
:10093A0009CFAE0CAF0D7C007D0A12094EED2430B2
:04094A00FF0209DAC5
:0809A300C2A1D2A27F027E0076
:1009AB00E4FDFCC3ED9FEC9E5019758901758CFC21
:1009BB00758A66D28C308DFDC28CC28D0DBD000147
:0309CB000C80E0BD
:0109CE002206
:10088C0075B0FF1209E412090220B002D20020B1A7
:0C089C0002C20020B2031208F73000ED89
:1008A800E4F508F5097F017E001209AB20B104C206
:1008B80000801920B2051208F780110509E50970B2
:1008C800020508C394E8E508940340D93000BE0542
:1008D8000FE50F7002050E643C450E700CF50EF521
:0C08E8000F0511E5117002051012090245
:0308F40002089562
:03000000020800F3
:0C080000787FE4F6D8FD758120020847DF
:10094E00BC000BBE0029EF8DF084FFADF022E4CC8D
:10095E00F875F008EF2FFFEE33FEEC33FCEE9DEC56
:10096E00984005FCEE9DFE0FD5F0E9E4CEFD22ED9C
:10097E00F8F5F0EE8420D21CFEADF075F008EF2FE6
:10098E00FFED33FD4007985006D5F0F222C398FDD7
:05099E000FD5F0EA2274
:10080C0002088CE493A3F8E493A34003F68001F26E
:10081C0008DFF48029E493A3F85407240CC8C333ED
:10082C00C4540F4420C8834004F456800146F6DFBC
:10083C00E4800B01020408102040809009F8E47E4B
:10084C00019360BCA3FF543F30E509541FFEE493B1
:10085C00A360010ECF54C025E060A840B8E493A378
:10086C00FAE493A3F8E493A3C8C582C8CAC583CAA3
:10087C00F0A3C8C582C8CAC583CADFE9DEE780BE5B
:010A020000F3
:00000001FF
