:030000000208995A
:0C089900787FE4F6D8FD758107020800A6
:10086000E4FDFCC3ED9FEC9E5015E4FBFA0BBB00CE
:0F087000010ABA4EF8BB20F50DBD00010C80E463
:01087F002256
:10088000C293C290C2A5C2A2D291D2A6D2A3D2A034
:09089000D292D2A7D2A4D2A12277
:10080000120880D2A2C2A07F0A7E00120860D2A085
:10081000C2A17F03120860D2A1120880D2A5C2A390
:100820007F0A120860D2A3C2A47F03120860D2A478
:10083000120880D290C2A67F0A120860D2A6C2A770
:100840007F03120860D2A7120880D293C2917F0A58
:10085000120860D291C2927F03120860D29280A0E7
:00000001FF
